{
  "contractName": "Auctions",
  "abi": [
    {
      "inputs": [
        {
          "internalType": "string",
          "name": "_companyName",
          "type": "string"
        }
      ],
      "stateMutability": "nonpayable",
      "type": "constructor"
    },
    {
      "anonymous": false,
      "inputs": [
        {
          "indexed": true,
          "internalType": "uint256",
          "name": "auctionID",
          "type": "uint256"
        },
        {
          "indexed": true,
          "internalType": "address",
          "name": "winner",
          "type": "address"
        },
        {
          "indexed": true,
          "internalType": "uint256",
          "name": "amount",
          "type": "uint256"
        },
        {
          "indexed": false,
          "internalType": "address",
          "name": "beneficiary",
          "type": "address"
        }
      ],
      "name": "AuctionEnded",
      "type": "event"
    },
    {
      "anonymous": false,
      "inputs": [
        {
          "indexed": true,
          "internalType": "address",
          "name": "account",
          "type": "address"
        }
      ],
      "name": "AuctioneerAdded",
      "type": "event"
    },
    {
      "anonymous": false,
      "inputs": [
        {
          "indexed": true,
          "internalType": "address",
          "name": "account",
          "type": "address"
        }
      ],
      "name": "AuctioneerRemoved",
      "type": "event"
    },
    {
      "anonymous": false,
      "inputs": [
        {
          "indexed": true,
          "internalType": "uint256",
          "name": "auctionID",
          "type": "uint256"
        },
        {
          "indexed": true,
          "internalType": "address",
          "name": "bidder",
          "type": "address"
        },
        {
          "indexed": true,
          "internalType": "uint256",
          "name": "amount",
          "type": "uint256"
        }
      ],
      "name": "HighestBidIncreased",
      "type": "event"
    },
    {
      "anonymous": false,
      "inputs": [
        {
          "indexed": true,
          "internalType": "uint256",
          "name": "auctionID",
          "type": "uint256"
        },
        {
          "indexed": false,
          "internalType": "address",
          "name": "beneficiary",
          "type": "address"
        },
        {
          "indexed": true,
          "internalType": "uint256",
          "name": "auctionEndTime",
          "type": "uint256"
        },
        {
          "indexed": true,
          "internalType": "uint256",
          "name": "startingPrice",
          "type": "uint256"
        }
      ],
      "name": "NewAuctionCreated",
      "type": "event"
    },
    {
      "anonymous": false,
      "inputs": [
        {
          "indexed": true,
          "internalType": "address",
          "name": "from",
          "type": "address"
        },
        {
          "indexed": true,
          "internalType": "address",
          "name": "to",
          "type": "address"
        }
      ],
      "name": "NewOwnership",
      "type": "event"
    },
    {
      "anonymous": false,
      "inputs": [
        {
          "indexed": true,
          "internalType": "address",
          "name": "from",
          "type": "address"
        },
        {
          "indexed": true,
          "internalType": "address",
          "name": "to",
          "type": "address"
        }
      ],
      "name": "NewPendingOwnership",
      "type": "event"
    },
    {
      "inputs": [],
      "name": "acceptOwnership",
      "outputs": [],
      "stateMutability": "nonpayable",
      "type": "function"
    },
    {
      "inputs": [
        {
          "internalType": "address",
          "name": "_account",
          "type": "address"
        }
      ],
      "name": "addAuctioneer",
      "outputs": [],
      "stateMutability": "nonpayable",
      "type": "function"
    },
    {
      "inputs": [
        {
          "internalType": "uint256",
          "name": "",
          "type": "uint256"
        }
      ],
      "name": "auctions",
      "outputs": [
        {
          "internalType": "address payable",
          "name": "beneficiary",
          "type": "address"
        },
        {
          "internalType": "string",
          "name": "description",
          "type": "string"
        },
        {
          "internalType": "uint256",
          "name": "auctionEndTime",
          "type": "uint256"
        },
        {
          "internalType": "uint256",
          "name": "numBids",
          "type": "uint256"
        },
        {
          "internalType": "uint256",
          "name": "highestBid",
          "type": "uint256"
        },
        {
          "internalType": "address",
          "name": "highestBidder",
          "type": "address"
        },
        {
          "internalType": "bool",
          "name": "completed",
          "type": "bool"
        }
      ],
      "stateMutability": "view",
      "type": "function"
    },
    {
      "inputs": [],
      "name": "governor",
      "outputs": [
        {
          "internalType": "address",
          "name": "",
          "type": "address"
        }
      ],
      "stateMutability": "view",
      "type": "function"
    },
    {
      "inputs": [
        {
          "internalType": "address",
          "name": "_account",
          "type": "address"
        }
      ],
      "name": "isAuctioneer",
      "outputs": [
        {
          "internalType": "bool",
          "name": "",
          "type": "bool"
        }
      ],
      "stateMutability": "view",
      "type": "function"
    },
    {
      "inputs": [],
      "name": "numAuctions",
      "outputs": [
        {
          "internalType": "uint256",
          "name": "",
          "type": "uint256"
        }
      ],
      "stateMutability": "view",
      "type": "function"
    },
    {
      "inputs": [],
      "name": "numReceipts",
      "outputs": [
        {
          "internalType": "uint256",
          "name": "",
          "type": "uint256"
        }
      ],
      "stateMutability": "view",
      "type": "function"
    },
    {
      "inputs": [],
      "name": "pendingGovernor",
      "outputs": [
        {
          "internalType": "address",
          "name": "",
          "type": "address"
        }
      ],
      "stateMutability": "view",
      "type": "function"
    },
    {
      "inputs": [
        {
          "internalType": "uint256",
          "name": "",
          "type": "uint256"
        }
      ],
      "name": "receipts",
      "outputs": [
        {
          "internalType": "bytes",
          "name": "",
          "type": "bytes"
        }
      ],
      "stateMutability": "view",
      "type": "function"
    },
    {
      "inputs": [
        {
          "internalType": "address",
          "name": "_account",
          "type": "address"
        }
      ],
      "name": "removeAuctioneer",
      "outputs": [],
      "stateMutability": "nonpayable",
      "type": "function"
    },
    {
      "inputs": [],
      "name": "renounceAuctioneer",
      "outputs": [],
      "stateMutability": "nonpayable",
      "type": "function"
    },
    {
      "inputs": [
        {
          "internalType": "address",
          "name": "_newGovernor",
          "type": "address"
        }
      ],
      "name": "transferOwnership",
      "outputs": [],
      "stateMutability": "nonpayable",
      "type": "function"
    },
    {
      "inputs": [
        {
          "internalType": "address payable",
          "name": "_beneficiary",
          "type": "address"
        },
        {
          "internalType": "string",
          "name": "_description",
          "type": "string"
        },
        {
          "internalType": "uint256",
          "name": "_startingPrice",
          "type": "uint256"
        },
        {
          "internalType": "uint256",
          "name": "_biddingTime",
          "type": "uint256"
        }
      ],
      "name": "newAuction",
      "outputs": [
        {
          "internalType": "uint256",
          "name": "",
          "type": "uint256"
        }
      ],
      "stateMutability": "nonpayable",
      "type": "function"
    },
    {
      "inputs": [
        {
          "internalType": "uint256",
          "name": "auctionID",
          "type": "uint256"
        }
      ],
      "name": "bid",
      "outputs": [],
      "stateMutability": "payable",
      "type": "function"
    },
    {
      "inputs": [
        {
          "internalType": "uint256",
          "name": "auctionID",
          "type": "uint256"
        }
      ],
      "name": "withdraw",
      "outputs": [
        {
          "internalType": "bool",
          "name": "",
          "type": "bool"
        }
      ],
      "stateMutability": "nonpayable",
      "type": "function"
    },
    {
      "inputs": [
        {
          "internalType": "uint256",
          "name": "auctionID",
          "type": "uint256"
        }
      ],
      "name": "auctionEnd",
      "outputs": [],
      "stateMutability": "nonpayable",
      "type": "function"
    },
    {
      "inputs": [],
      "name": "storeReceipt",
      "outputs": [],
      "stateMutability": "nonpayable",
      "type": "function"
    }
  ],
  "bytecode": "0x60806040523480156200001157600080fd5b5060405162002c4738038062002c478339818101604052810190620000379190620003d2565b6200005c6200004b6200009c60201b60201c565b620000a460201b620016ce1760201c565b6200007c620000706200009c60201b60201c565b620000e760201b60201c565b80600590805190602001906200009492919062000185565b505062000488565b600033905090565b806000806101000a81548173ffffffffffffffffffffffffffffffffffffffff021916908373ffffffffffffffffffffffffffffffffffffffff16021790555050565b6001600260008373ffffffffffffffffffffffffffffffffffffffff1673ffffffffffffffffffffffffffffffffffffffff16815260200190815260200160002060006101000a81548160ff0219169083151502179055508073ffffffffffffffffffffffffffffffffffffffff167fc4ad4859ea9478e209be13e057e75daa2aa8416900af4f37a41dc66ad49db56960405160405180910390a250565b828054620001939062000452565b90600052602060002090601f016020900481019282620001b7576000855562000203565b82601f10620001d257805160ff191683800117855562000203565b8280016001018555821562000203579182015b8281111562000202578251825591602001919060010190620001e5565b5b50905062000212919062000216565b5090565b5b808211156200023157600081600090555060010162000217565b5090565b6000604051905090565b600080fd5b600080fd5b600080fd5b600080fd5b6000601f19601f8301169050919050565b7f4e487b7100000000000000000000000000000000000000000000000000000000600052604160045260246000fd5b6200029e8262000253565b810181811067ffffffffffffffff82111715620002c057620002bf62000264565b5b80604052505050565b6000620002d562000235565b9050620002e3828262000293565b919050565b600067ffffffffffffffff82111562000306576200030562000264565b5b620003118262000253565b9050602081019050919050565b60005b838110156200033e57808201518184015260208101905062000321565b838111156200034e576000848401525b50505050565b60006200036b6200036584620002e8565b620002c9565b9050828152602081018484840111156200038a57620003896200024e565b5b620003978482856200031e565b509392505050565b600082601f830112620003b757620003b662000249565b5b8151620003c984826020860162000354565b91505092915050565b600060208284031215620003eb57620003ea6200023f565b5b600082015167ffffffffffffffff8111156200040c576200040b62000244565b5b6200041a848285016200039f565b91505092915050565b7f4e487b7100000000000000000000000000000000000000000000000000000000600052602260045260246000fd5b600060028204905060018216806200046b57607f821691505b6020821081141562000482576200048162000423565b5b50919050565b6127af80620004986000396000f3fe6080604052600436106100fe5760003560e01c80639cd85b5b11610095578063d52049d311610064578063d52049d31461032c578063decb7a9514610369578063e3056a3414610380578063f2fde38b146103ab578063f56fb12d146103d4576100fe565b80639cd85b5b14610272578063a4a95ffc146102af578063bed2b6ac146102da578063cbe01bc814610303576100fe565b8063454a2ab3116100d1578063454a2ab3146101d1578063571a26a0146101ed5780635c113acc1461023057806379ba50971461025b576100fe565b80630c340a24146101035780630f7ee1ec1461012e5780632e1a7d4d1461016b57806332246e9f146101a8575b600080fd5b34801561010f57600080fd5b506101186103eb565b60405161012591906119e2565b60405180910390f35b34801561013a57600080fd5b5061015560048036038101906101509190611a47565b61040f565b6040516101629190611b0d565b60405180910390f35b34801561017757600080fd5b50610192600480360381019061018d9190611a47565b6104bb565b60405161019f9190611b4a565b60405180910390f35b3480156101b457600080fd5b506101cf60048036038101906101ca9190611a47565b6106ee565b005b6101eb60048036038101906101e69190611a47565b610922565b005b3480156101f957600080fd5b50610214600480360381019061020f9190611a47565b610c13565b6040516102279796959493929190611bea565b60405180910390f35b34801561023c57600080fd5b50610245610d2a565b6040516102529190611c60565b60405180910390f35b34801561026757600080fd5b50610270610d30565b005b34801561027e57600080fd5b5061029960048036038101906102949190611ca7565b611006565b6040516102a69190611b4a565b60405180910390f35b3480156102bb57600080fd5b506102c461105c565b6040516102d19190611c60565b60405180910390f35b3480156102e657600080fd5b5061030160048036038101906102fc9190611ca7565b611062565b005b34801561030f57600080fd5b5061032a60048036038101906103259190611ca7565b6110fc565b005b34801561033857600080fd5b50610353600480360381019061034e9190611e35565b611196565b6040516103609190611c60565b60405180910390f35b34801561037557600080fd5b5061037e611403565b005b34801561038c57600080fd5b50610395611415565b6040516103a291906119e2565b60405180910390f35b3480156103b757600080fd5b506103d260048036038101906103cd9190611ca7565b61143b565b005b3480156103e057600080fd5b506103e9611621565b005b60008054906101000a900473ffffffffffffffffffffffffffffffffffffffff1681565b6006818154811061041f57600080fd5b90600052602060002001600091509050805461043a90611ee7565b80601f016020809104026020016040519081016040528092919081815260200182805461046690611ee7565b80156104b35780601f10610488576101008083540402835291602001916104b3565b820191906000526020600020905b81548152906001019060200180831161049657829003601f168201915b505050505081565b600080600460008481526020019081526020016000209050600081600201541161051a576040517f08c379a000000000000000000000000000000000000000000000000000000000815260040161051190611f65565b60405180910390fd5b600081600301600061052a611711565b73ffffffffffffffffffffffffffffffffffffffff1673ffffffffffffffffffffffffffffffffffffffff16815260200190815260200160002054116105a5576040517f08c379a000000000000000000000000000000000000000000000000000000000815260040161059c90612043565b60405180910390fd5b60008160030160006105b5611711565b73ffffffffffffffffffffffffffffffffffffffff1673ffffffffffffffffffffffffffffffffffffffff16815260200190815260200160002054905060008111156106e257600082600301600061060b611711565b73ffffffffffffffffffffffffffffffffffffffff1673ffffffffffffffffffffffffffffffffffffffff16815260200190815260200160002081905550610651611711565b73ffffffffffffffffffffffffffffffffffffffff166108fc829081150290604051600060405180830381858888f193505050506106e15780826003016000610698611711565b73ffffffffffffffffffffffffffffffffffffffff1673ffffffffffffffffffffffffffffffffffffffff168152602001908152602001600020819055506000925050506106e9565b5b6001925050505b919050565b6000600460008381526020019081526020016000209050600081600201541161074c576040517f08c379a000000000000000000000000000000000000000000000000000000000815260040161074390611f65565b60405180910390fd5b80600201544211610792576040517f08c379a0000000000000000000000000000000000000000000000000000000008152600401610789906120d5565b60405180910390fd5b600015158160060160149054906101000a900460ff161515146107ea576040517f08c379a00000000000000000000000000000000000000000000000000000000081526004016107e190612167565b60405180910390fd5b60018160060160146101000a81548160ff021916908315150217905550600081600501549050600082600501819055508160000160009054906101000a900473ffffffffffffffffffffffffffffffffffffffff1673ffffffffffffffffffffffffffffffffffffffff166108fc829081150290604051600060405180830381858888f19350505050158015610884573d6000803e3d6000fd5b50808260060160009054906101000a900473ffffffffffffffffffffffffffffffffffffffff1673ffffffffffffffffffffffffffffffffffffffff16847fbb6764412c29916bdf4a5c6fe6b1c079de35682160b2289928ce003ab459a7498560000160009054906101000a900473ffffffffffffffffffffffffffffffffffffffff1660405161091591906121e6565b60405180910390a4505050565b6000600460008381526020019081526020016000209050600015158160060160149054906101000a900460ff16151514610991576040517f08c379a00000000000000000000000000000000000000000000000000000000081526004016109889061224d565b60405180910390fd5b60008160020154116109d8576040517f08c379a00000000000000000000000000000000000000000000000000000000081526004016109cf90611f65565b60405180910390fd5b80600201544210610a1e576040517f08c379a0000000000000000000000000000000000000000000000000000000008152600401610a15906122b9565b60405180910390fd5b80600501543411610a64576040517f08c379a0000000000000000000000000000000000000000000000000000000008152600401610a5b9061234b565b60405180910390fd5b6000816004015414610b5657610aec81600501548260030160008460060160009054906101000a900473ffffffffffffffffffffffffffffffffffffffff1673ffffffffffffffffffffffffffffffffffffffff1673ffffffffffffffffffffffffffffffffffffffff1681526020019081526020016000205461171990919063ffffffff16565b8160030160008360060160009054906101000a900473ffffffffffffffffffffffffffffffffffffffff1673ffffffffffffffffffffffffffffffffffffffff1673ffffffffffffffffffffffffffffffffffffffff168152602001908152602001600020819055505b610b5e611711565b8160060160006101000a81548173ffffffffffffffffffffffffffffffffffffffff021916908373ffffffffffffffffffffffffffffffffffffffff160217905550348160050181905550806004016000815480929190610bbe9061239a565b919050555034610bcc611711565b73ffffffffffffffffffffffffffffffffffffffff16837fda0a18da71d8ebd145966339a728fc0d8ccc07c22870d561890d823c515dda6b60405160405180910390a45050565b60046020528060005260406000206000915090508060000160009054906101000a900473ffffffffffffffffffffffffffffffffffffffff1690806001018054610c5c90611ee7565b80601f0160208091040260200160405190810160405280929190818152602001828054610c8890611ee7565b8015610cd55780601f10610caa57610100808354040283529160200191610cd5565b820191906000526020600020905b815481529060010190602001808311610cb857829003601f168201915b5050505050908060020154908060040154908060050154908060060160009054906101000a900473ffffffffffffffffffffffffffffffffffffffff16908060060160149054906101000a900460ff16905087565b60035481565b600073ffffffffffffffffffffffffffffffffffffffff16600160009054906101000a900473ffffffffffffffffffffffffffffffffffffffff1673ffffffffffffffffffffffffffffffffffffffff1614158015610ddc5750600160009054906101000a900473ffffffffffffffffffffffffffffffffffffffff1673ffffffffffffffffffffffffffffffffffffffff163373ffffffffffffffffffffffffffffffffffffffff16145b610e1b576040517f08c379a0000000000000000000000000000000000000000000000000000000008152600401610e129061242f565b60405180910390fd5b60008060009054906101000a900473ffffffffffffffffffffffffffffffffffffffff1690506000600160009054906101000a900473ffffffffffffffffffffffffffffffffffffffff169050600160009054906101000a900473ffffffffffffffffffffffffffffffffffffffff166000806101000a81548173ffffffffffffffffffffffffffffffffffffffff021916908373ffffffffffffffffffffffffffffffffffffffff1602179055506000600160006101000a81548173ffffffffffffffffffffffffffffffffffffffff021916908373ffffffffffffffffffffffffffffffffffffffff16021790555060008054906101000a900473ffffffffffffffffffffffffffffffffffffffff1673ffffffffffffffffffffffffffffffffffffffff168273ffffffffffffffffffffffffffffffffffffffff167f0ac6deed30eef60090c749850e10f2fa469e3e25fec1d1bef2853003f6e6f18f60405160405180910390a3600160009054906101000a900473ffffffffffffffffffffffffffffffffffffffff1673ffffffffffffffffffffffffffffffffffffffff168173ffffffffffffffffffffffffffffffffffffffff167f76563ad561b7036ae716b9b25cb521b21463240f104c97e12f25877f2235f33d60405160405180910390a35050565b6000600260008373ffffffffffffffffffffffffffffffffffffffff1673ffffffffffffffffffffffffffffffffffffffff16815260200190815260200160002060009054906101000a900460ff169050919050565b60075481565b60008054906101000a900473ffffffffffffffffffffffffffffffffffffffff1673ffffffffffffffffffffffffffffffffffffffff163373ffffffffffffffffffffffffffffffffffffffff16146110f0576040517f08c379a00000000000000000000000000000000000000000000000000000000081526004016110e79061249b565b60405180910390fd5b6110f98161172f565b50565b60008054906101000a900473ffffffffffffffffffffffffffffffffffffffff1673ffffffffffffffffffffffffffffffffffffffff163373ffffffffffffffffffffffffffffffffffffffff161461118a576040517f08c379a00000000000000000000000000000000000000000000000000000000081526004016111819061249b565b60405180910390fd5b611193816117cd565b50565b60006111a86111a3611711565b611006565b6111e7576040517f08c379a00000000000000000000000000000000000000000000000000000000081526004016111de90612507565b60405180910390fd5b600073ffffffffffffffffffffffffffffffffffffffff168573ffffffffffffffffffffffffffffffffffffffff161415611257576040517f08c379a000000000000000000000000000000000000000000000000000000000815260040161124e90612573565b60405180910390fd5b600083101561129b576040517f08c379a000000000000000000000000000000000000000000000000000000000815260040161129290612605565b60405180910390fd5b600082116112de576040517f08c379a00000000000000000000000000000000000000000000000000000000081526004016112d590612697565b60405180910390fd5b6000600360008154809291906112f39061239a565b9190505590506000600460008381526020019081526020016000209050868160000160006101000a81548173ffffffffffffffffffffffffffffffffffffffff021916908373ffffffffffffffffffffffffffffffffffffffff1602179055508581600101908051906020019061136b929190611878565b50848160050181905550611388844261171990919063ffffffff16565b816002018190555080600501548160020154837ffd82e7264e2a2f9bf6605c09e84ed2e05b0bb6b428c67fdce105ffff4b282b338460000160009054906101000a900473ffffffffffffffffffffffffffffffffffffffff166040516113ee91906121e6565b60405180910390a48192505050949350505050565b61141361140e611711565b61172f565b565b600160009054906101000a900473ffffffffffffffffffffffffffffffffffffffff1681565b60008054906101000a900473ffffffffffffffffffffffffffffffffffffffff1673ffffffffffffffffffffffffffffffffffffffff163373ffffffffffffffffffffffffffffffffffffffff16146114c9576040517f08c379a00000000000000000000000000000000000000000000000000000000081526004016114c09061249b565b60405180910390fd5b600073ffffffffffffffffffffffffffffffffffffffff168173ffffffffffffffffffffffffffffffffffffffff161415611539576040517f08c379a000000000000000000000000000000000000000000000000000000000815260040161153090612703565b60405180910390fd5b6000600160009054906101000a900473ffffffffffffffffffffffffffffffffffffffff16905081600160006101000a81548173ffffffffffffffffffffffffffffffffffffffff021916908373ffffffffffffffffffffffffffffffffffffffff160217905550600160009054906101000a900473ffffffffffffffffffffffffffffffffffffffff1673ffffffffffffffffffffffffffffffffffffffff168173ffffffffffffffffffffffffffffffffffffffff167f76563ad561b7036ae716b9b25cb521b21463240f104c97e12f25877f2235f33d60405160405180910390a35050565b61163161162c611711565b611006565b611670576040517f08c379a000000000000000000000000000000000000000000000000000000000815260040161166790612507565b60405180910390fd5b600661167a61186b565b909180600181540180825580915050600190039060005260206000200160009091929091929091929091925091906116b39291906118fe565b50600760008154809291906116c79061239a565b9190505550565b806000806101000a81548173ffffffffffffffffffffffffffffffffffffffff021916908373ffffffffffffffffffffffffffffffffffffffff16021790555050565b600033905090565b600081836117279190612723565b905092915050565b6000600260008373ffffffffffffffffffffffffffffffffffffffff1673ffffffffffffffffffffffffffffffffffffffff16815260200190815260200160002060006101000a81548160ff0219169083151502179055508073ffffffffffffffffffffffffffffffffffffffff167fc12aae0314d0af3ff684b2bb940a24c3a3bb6e0a05bc40096a05caed0c1a0d1b60405160405180910390a250565b6001600260008373ffffffffffffffffffffffffffffffffffffffff1673ffffffffffffffffffffffffffffffffffffffff16815260200190815260200160002060006101000a81548160ff0219169083151502179055508073ffffffffffffffffffffffffffffffffffffffff167fc4ad4859ea9478e209be13e057e75daa2aa8416900af4f37a41dc66ad49db56960405160405180910390a250565b3660008036915091509091565b82805461188490611ee7565b90600052602060002090601f0160209004810192826118a657600085556118ed565b82601f106118bf57805160ff19168380011785556118ed565b828001600101855582156118ed579182015b828111156118ec5782518255916020019190600101906118d1565b5b5090506118fa9190611984565b5090565b82805461190a90611ee7565b90600052602060002090601f01602090048101928261192c5760008555611973565b82601f1061194557803560ff1916838001178555611973565b82800160010185558215611973579182015b82811115611972578235825591602001919060010190611957565b5b5090506119809190611984565b5090565b5b8082111561199d576000816000905550600101611985565b5090565b600073ffffffffffffffffffffffffffffffffffffffff82169050919050565b60006119cc826119a1565b9050919050565b6119dc816119c1565b82525050565b60006020820190506119f760008301846119d3565b92915050565b6000604051905090565b600080fd5b600080fd5b6000819050919050565b611a2481611a11565b8114611a2f57600080fd5b50565b600081359050611a4181611a1b565b92915050565b600060208284031215611a5d57611a5c611a07565b5b6000611a6b84828501611a32565b91505092915050565b600081519050919050565b600082825260208201905092915050565b60005b83811015611aae578082015181840152602081019050611a93565b83811115611abd576000848401525b50505050565b6000601f19601f8301169050919050565b6000611adf82611a74565b611ae98185611a7f565b9350611af9818560208601611a90565b611b0281611ac3565b840191505092915050565b60006020820190508181036000830152611b278184611ad4565b905092915050565b60008115159050919050565b611b4481611b2f565b82525050565b6000602082019050611b5f6000830184611b3b565b92915050565b6000611b70826119a1565b9050919050565b611b8081611b65565b82525050565b600081519050919050565b600082825260208201905092915050565b6000611bad82611b86565b611bb78185611b91565b9350611bc7818560208601611a90565b611bd081611ac3565b840191505092915050565b611be481611a11565b82525050565b600060e082019050611bff600083018a611b77565b8181036020830152611c118189611ba2565b9050611c206040830188611bdb565b611c2d6060830187611bdb565b611c3a6080830186611bdb565b611c4760a08301856119d3565b611c5460c0830184611b3b565b98975050505050505050565b6000602082019050611c756000830184611bdb565b92915050565b611c84816119c1565b8114611c8f57600080fd5b50565b600081359050611ca181611c7b565b92915050565b600060208284031215611cbd57611cbc611a07565b5b6000611ccb84828501611c92565b91505092915050565b611cdd81611b65565b8114611ce857600080fd5b50565b600081359050611cfa81611cd4565b92915050565b600080fd5b600080fd5b7f4e487b7100000000000000000000000000000000000000000000000000000000600052604160045260246000fd5b611d4282611ac3565b810181811067ffffffffffffffff82111715611d6157611d60611d0a565b5b80604052505050565b6000611d746119fd565b9050611d808282611d39565b919050565b600067ffffffffffffffff821115611da057611d9f611d0a565b5b611da982611ac3565b9050602081019050919050565b82818337600083830152505050565b6000611dd8611dd384611d85565b611d6a565b905082815260208101848484011115611df457611df3611d05565b5b611dff848285611db6565b509392505050565b600082601f830112611e1c57611e1b611d00565b5b8135611e2c848260208601611dc5565b91505092915050565b60008060008060808587031215611e4f57611e4e611a07565b5b6000611e5d87828801611ceb565b945050602085013567ffffffffffffffff811115611e7e57611e7d611a0c565b5b611e8a87828801611e07565b9350506040611e9b87828801611a32565b9250506060611eac87828801611a32565b91505092959194509250565b7f4e487b7100000000000000000000000000000000000000000000000000000000600052602260045260246000fd5b60006002820490506001821680611eff57607f821691505b60208210811415611f1357611f12611eb8565b5b50919050565b7f41756374696f6e4944206973206e6f7420636f72726563742100000000000000600082015250565b6000611f4f601983611b91565b9150611f5a82611f19565b602082019050919050565b60006020820190508181036000830152611f7e81611f42565b9050919050565b7f596f752068617665206265656e20616c726561647920726566756e646564206f60008201527f7220796f7520617265206e6f74206120626964646572206f662074686973206160208201527f756374696f6e206f7220796f7520617265207468652063757272656e7420686960408201527f6768657374206269646465720000000000000000000000000000000000000000606082015250565b600061202d606c83611b91565b915061203882611f85565b608082019050919050565b6000602082019050818103600083015261205c81612020565b9050919050565b7f41756374696f6e20686173206e6f74207265616368656420697473206465616460008201527f6c696e6520796574000000000000000000000000000000000000000000000000602082015250565b60006120bf602883611b91565b91506120ca82612063565b604082019050919050565b600060208201905081810360008301526120ee816120b2565b9050919050565b7f41756374696f6e20686173206265656e20616c726561647920636f6d706c657460008201527f6564000000000000000000000000000000000000000000000000000000000000602082015250565b6000612151602283611b91565b915061215c826120f5565b604082019050919050565b6000602082019050818103600083015261218081612144565b9050919050565b6000819050919050565b60006121ac6121a76121a2846119a1565b612187565b6119a1565b9050919050565b60006121be82612191565b9050919050565b60006121d0826121b3565b9050919050565b6121e0816121c5565b82525050565b60006020820190506121fb60008301846121d7565b92915050565b7f41756374696f6e2068617320616c726561647920656e64656421000000000000600082015250565b6000612237601a83611b91565b915061224282612201565b602082019050919050565b600060208201905081810360008301526122668161222a565b9050919050565b7f446561646c696e6520686173206265656e207265616368656421000000000000600082015250565b60006122a3601a83611b91565b91506122ae8261226d565b602082019050919050565b600060208201905081810360008301526122d281612296565b9050919050565b7f596f7572206269642076616c7565206973206c6f776572207468616e2074686560008201527f2068696768657374206269640000000000000000000000000000000000000000602082015250565b6000612335602c83611b91565b9150612340826122d9565b604082019050919050565b6000602082019050818103600083015261236481612328565b9050919050565b7f4e487b7100000000000000000000000000000000000000000000000000000000600052601160045260246000fd5b60006123a582611a11565b91507fffffffffffffffffffffffffffffffffffffffffffffffffffffffffffffffff8214156123d8576123d761236b565b5b600182019050919050565b7f43616c6c6572206d7573742062652070656e64696e6720676f7665726e6f7200600082015250565b6000612419601f83611b91565b9150612424826123e3565b602082019050919050565b600060208201905081810360008301526124488161240c565b9050919050565b7f4f6e6c7920476f7665726e6f722063616e2063616c6c00000000000000000000600082015250565b6000612485601683611b91565b91506124908261244f565b602082019050919050565b600060208201905081810360008301526124b481612478565b9050919050565b7f4f6e6c792061756374696f6e6565722063616e2063616c6c0000000000000000600082015250565b60006124f1601883611b91565b91506124fc826124bb565b602082019050919050565b60006020820190508181036000830152612520816124e4565b9050919050565b7f5a65726f206164647265737320656e7465726564000000000000000000000000600082015250565b600061255d601483611b91565b915061256882612527565b602082019050919050565b6000602082019050818103600083015261258c81612550565b9050919050565b7f5374617274696e672070726963652068617320746f20626520706f736974697660008201527f65206f72206e756c6c0000000000000000000000000000000000000000000000602082015250565b60006125ef602983611b91565b91506125fa82612593565b604082019050919050565b6000602082019050818103600083015261261e816125e2565b9050919050565b7f417661696c61626c652074696d6520746f206269642068617320746f2062652060008201527f6772656174686572207468616e207a65726f0000000000000000000000000000602082015250565b6000612681603283611b91565b915061268c82612625565b604082019050919050565b600060208201905081810360008301526126b081612674565b9050919050565b7f476f7665726e6f72206d75737420626520736574000000000000000000000000600082015250565b60006126ed601483611b91565b91506126f8826126b7565b602082019050919050565b6000602082019050818103600083015261271c816126e0565b9050919050565b600061272e82611a11565b915061273983611a11565b9250827fffffffffffffffffffffffffffffffffffffffffffffffffffffffffffffffff0382111561276e5761276d61236b565b5b82820190509291505056fea264697066735822122043b63f314521238fc3e402d05f7e615b6a8d4c3ed8bb545eb41eb23b4c478f7164736f6c634300080b0033",
  "immutableReferences": {},
  "source": "//SPDX-License-Identifier: UNLICENSED\r\n\r\npragma solidity ^0.8.0;\r\n\r\n/// @title Auctions service\r\n/// @author Riccardo Magni\r\n/// @notice This contract was created for educational purpose, its reliability is not guaranteed\r\n/// @dev All functions calls are currently implemented without side effects\r\n\r\nimport \"./SafeMath.sol\";\r\nimport \"./Governed.sol\";\r\nimport \"./Context.sol\";\r\n\r\n/**\r\n* @title Auctioneer contract\r\n* @dev This is the implementation of the the auctioneers.\r\n*/\r\n\r\ncontract Auctioneer is Governed, Context {\r\n\r\n    /// @dev Wrappers over Solidity's arithmetic operations with added overflow checks\r\n    using SafeMath for uint;\r\n\r\n    // -- State --\r\n    mapping(address => bool) private _auctioneers;\r\n\r\n    // -- Events --\r\n    event AuctioneerAdded(address indexed account);\r\n    event AuctioneerRemoved(address indexed account);\r\n\r\n    // -- Modifier --\r\n    modifier onlyAuctioneer() {\r\n        require(isAuctioneer(_msgSender()), \"Only auctioneer can call\");\r\n        _;\r\n    }\r\n\r\n    /**\r\n     * @dev Auction Constructor.\r\n     */\r\n    constructor () {\r\n\r\n        /// @dev Set the owner of the contract\r\n        Governed._initialize(_msgSender());\r\n\r\n        /// @dev The governor is the default auctioneer\r\n        _addAuctioneer(_msgSender());\r\n    }\r\n\r\n    /**\r\n     * @dev Add a new auctioneer.\r\n     * @param _account Address of the auctioneer\r\n     */\r\n    function addAuctioneer(address _account) external onlyGovernor {\r\n        _addAuctioneer(_account);\r\n    }\r\n\r\n    /**\r\n     * @dev Remove a auctioneer.\r\n     * @param _account Address of the auctioneer\r\n     */\r\n    function removeAuctioneer(address _account) external onlyGovernor {\r\n        _removeAuctioneer(_account);\r\n    }\r\n\r\n    /**\r\n     * @dev Renounce to be a auctioneer.\r\n     */\r\n    function renounceAuctioneer() external {\r\n        _removeAuctioneer(_msgSender());\r\n    }\r\n\r\n    /**\r\n     * @dev Return if the `_account` is a auctioneer or not.\r\n     * @param _account Address to check\r\n     * @return True if the `_account` is auctioneer\r\n     */\r\n    function isAuctioneer(address _account) public view returns (bool) {\r\n        return _auctioneers[_account];\r\n    }\r\n\r\n    /**\r\n     * @dev Add a new auctioneer.\r\n     * @param _account Address of the auctioneer\r\n     */\r\n    function _addAuctioneer(address _account) private {\r\n        _auctioneers[_account] = true;\r\n        emit AuctioneerAdded(_account);\r\n    }\r\n\r\n    /**\r\n     * @dev Remove a auctioneer.\r\n     * @param _account Address of the auctioneer\r\n     */\r\n    function _removeAuctioneer(address _account) private {\r\n        _auctioneers[_account] = false;\r\n        emit AuctioneerRemoved(_account);\r\n    }\r\n}\r\n\r\n/**\r\n* @title Auctions contract\r\n* @dev This is the implementation of the the auctions service.\r\n*/\r\n\r\ncontract Auctions is Auctioneer {\r\n\r\n    /// @dev Wrappers over Solidity's arithmetic operations with added overflow checks\r\n    using SafeMath for uint;\r\n\r\n    // -- State --\r\n    struct Auction {\r\n        address payable beneficiary;\r\n        string description;\r\n        uint auctionEndTime; \r\n        mapping( address => uint ) pendingReturns;\r\n        uint numBids;\r\n        uint highestBid;\r\n        address highestBidder;\r\n        bool completed;\r\n    }\r\n\r\n    uint public numAuctions;\r\n    mapping( uint => Auction ) public auctions;\r\n    string companyName;\r\n\r\n    bytes[] public receipts;\r\n    uint public numReceipts;\r\n\r\n    // -- Events --\r\n    event NewAuctionCreated(uint indexed auctionID, address beneficiary, uint indexed auctionEndTime, uint indexed startingPrice);\r\n    event HighestBidIncreased(uint indexed auctionID, address indexed bidder, uint indexed amount);\r\n    event AuctionEnded(uint indexed auctionID, address indexed winner, uint indexed amount, address beneficiary);\r\n\r\n    // Initialize variables\r\n    constructor(string memory _companyName) {\r\n\r\n        companyName = _companyName;\r\n    }\r\n\r\n    /**\r\n     * @dev Create an auction\r\n     * @param _beneficiary Beneficiary of the auction\r\n     * @param _description Description of the auction\r\n     * @param _startingPrice Starting price of the auction\r\n     * @param _biddingTime Available time to bid\r\n     * @return The uint of the auction ID associated with the auction just created\r\n     */\r\n    function newAuction( address payable _beneficiary, string memory _description, uint _startingPrice, uint _biddingTime ) external onlyAuctioneer returns (uint) {\r\n        require(_beneficiary != address(0), \"Zero address entered\");\r\n        require(_startingPrice >= 0, \"Starting price has to be positive or null\");\r\n        require(_biddingTime > 0, \"Available time to bid has to be greather than zero\");\r\n\r\n        uint auctionID = numAuctions++;\r\n        Auction storage a = auctions[auctionID];\r\n        a.beneficiary = _beneficiary;\r\n        a.description = _description;\r\n        a.highestBid = _startingPrice;\r\n        a.auctionEndTime = block.timestamp.add(_biddingTime);\r\n\r\n        emit NewAuctionCreated(auctionID, a.beneficiary, a.auctionEndTime, a.highestBid);\r\n\r\n        return auctionID;\r\n    }\r\n\r\n    /**\r\n     * @dev Bid\r\n     * @param auctionID ID associated with the auction\r\n     */\r\n\r\n    function bid(uint auctionID) external payable {\r\n\r\n        Auction storage a = auctions[auctionID];\r\n        require(a.completed == false, \"Auction has already ended!\");\r\n        require(a.auctionEndTime > 0, \"AuctionID is not correct!\");\r\n        require(block.timestamp < a.auctionEndTime, \"Deadline has been reached!\");\r\n        require(msg.value > a.highestBid, \"Your bid value is lower than the highest bid\");\r\n\r\n        // Handle in case of starting price was set by auctioneer\r\n        if (a.numBids != 0) { \r\n\r\n            a.pendingReturns[a.highestBidder] = a.pendingReturns[a.highestBidder].add(a.highestBid);\r\n        }\r\n        a.highestBidder = _msgSender();   \r\n        a.highestBid = msg.value;\r\n        a.numBids++;\r\n\r\n        emit HighestBidIncreased(auctionID, _msgSender(), msg.value);\r\n    }\r\n\r\n    /**\r\n     * @dev Withdraw a bid that was overbid\r\n     * @param auctionID ID associated with the auction\r\n     * @return True if action was successfully executed, otherwise false\r\n     */\r\n    function withdraw(uint auctionID) external returns (bool) {\r\n\r\n        Auction storage a = auctions[auctionID];\r\n        require(a.auctionEndTime > 0, \"AuctionID is not correct!\");\r\n        require(a.pendingReturns[_msgSender()] > 0, \"You have been already refunded or you are not a bidder of this auction or you are the current highest bidder\");\r\n\r\n         \r\n        uint amount = a.pendingReturns[_msgSender()];\r\n        if (amount > 0) {\r\n            \r\n            a.pendingReturns[_msgSender()] = 0;\r\n          \r\n            if (!payable(_msgSender()).send(amount)) {\r\n                // No need to call throw here, just reset the amount owing\r\n                a.pendingReturns[_msgSender()] = amount;\r\n                return false;\r\n            }\r\n        }\r\n        return true;\r\n    }\r\n\r\n    /**\r\n     * @dev End an auction, transfer the highest bid to beneficiary\r\n     * @param auctionID ID associated with the auction\r\n     */\r\n    function auctionEnd(uint auctionID) external {\r\n\r\n        // Checks\r\n        Auction storage a = auctions[auctionID];\r\n        require(a.auctionEndTime > 0, \"AuctionID is not correct!\");\r\n        require(block.timestamp > a.auctionEndTime, \"Auction has not reached its deadline yet\");\r\n        require(a.completed == false, \"Auction has been already completed\");\r\n        \r\n\r\n        // Effects\r\n        a.completed = true;\r\n        uint amount = a.highestBid;\r\n        a.highestBid = 0;\r\n\r\n        // Interaction\r\n        a.beneficiary.transfer(amount);\r\n\r\n        emit AuctionEnded(auctionID, a.highestBidder, amount, a.beneficiary);\r\n    }\r\n\r\n    /**\r\n     * @dev Store hashes of JSON file receipts, only auctioneers\r\n     */\r\n    function storeReceipt() external onlyAuctioneer {\r\n        receipts.push(_msgData());\r\n        numReceipts++;\r\n    }\r\n\r\n}\r\n\r\n",
  "sourcePath": "C:\\Users\\Utente\\Desktop\\progetto finale\\truffle\\contracts\\Auctions.sol",
  "compiler": {
    "name": "solc",
    "version": "0.8.11+commit.d7f03943.Emscripten.clang"
  },
  "schemaVersion": "3.4.4",
  "updatedAt": "2022-02-22T20:44:18.735Z",
  "devdoc": {
    "details": "This is the implementation of the the auctions service.",
    "kind": "dev",
    "methods": {
      "acceptOwnership()": {
        "details": "Admin function for pending governor to accept role and update governor. This function must called by the pending governor."
      },
      "addAuctioneer(address)": {
        "details": "Add a new auctioneer.",
        "params": {
          "_account": "Address of the auctioneer"
        }
      },
      "auctionEnd(uint256)": {
        "details": "End an auction, transfer the highest bid to beneficiary",
        "params": {
          "auctionID": "ID associated with the auction"
        }
      },
      "bid(uint256)": {
        "details": "Bid",
        "params": {
          "auctionID": "ID associated with the auction"
        }
      },
      "isAuctioneer(address)": {
        "details": "Return if the `_account` is a auctioneer or not.",
        "params": {
          "_account": "Address to check"
        },
        "returns": {
          "_0": "True if the `_account` is auctioneer"
        }
      },
      "newAuction(address,string,uint256,uint256)": {
        "details": "Create an auction",
        "params": {
          "_beneficiary": "Beneficiary of the auction",
          "_biddingTime": "Available time to bid",
          "_description": "Description of the auction",
          "_startingPrice": "Starting price of the auction"
        },
        "returns": {
          "_0": "The uint of the auction ID associated with the auction just created"
        }
      },
      "removeAuctioneer(address)": {
        "details": "Remove a auctioneer.",
        "params": {
          "_account": "Address of the auctioneer"
        }
      },
      "renounceAuctioneer()": {
        "details": "Renounce to be a auctioneer."
      },
      "storeReceipt()": {
        "details": "Store hashes of JSON file receipts, only auctioneers"
      },
      "transferOwnership(address)": {
        "details": "Admin function to begin change of governor. The `_newGovernor` must call `acceptOwnership` to finalize the transfer.",
        "params": {
          "_newGovernor": "Address of new `governor`"
        }
      },
      "withdraw(uint256)": {
        "details": "Withdraw a bid that was overbid",
        "params": {
          "auctionID": "ID associated with the auction"
        },
        "returns": {
          "_0": "True if action was successfully executed, otherwise false"
        }
      }
    },
    "title": "Auctions contract",
    "version": 1
  },
  "userdoc": {
    "kind": "user",
    "methods": {},
    "version": 1
  }
}