{
  "contractName": "Auctioneer",
  "abi": [
    {
      "inputs": [],
      "stateMutability": "nonpayable",
      "type": "constructor"
    },
    {
      "anonymous": false,
      "inputs": [
        {
          "indexed": true,
          "internalType": "address",
          "name": "account",
          "type": "address"
        }
      ],
      "name": "AuctioneerAdded",
      "type": "event"
    },
    {
      "anonymous": false,
      "inputs": [
        {
          "indexed": true,
          "internalType": "address",
          "name": "account",
          "type": "address"
        }
      ],
      "name": "AuctioneerRemoved",
      "type": "event"
    },
    {
      "anonymous": false,
      "inputs": [
        {
          "indexed": true,
          "internalType": "address",
          "name": "from",
          "type": "address"
        },
        {
          "indexed": true,
          "internalType": "address",
          "name": "to",
          "type": "address"
        }
      ],
      "name": "NewOwnership",
      "type": "event"
    },
    {
      "anonymous": false,
      "inputs": [
        {
          "indexed": true,
          "internalType": "address",
          "name": "from",
          "type": "address"
        },
        {
          "indexed": true,
          "internalType": "address",
          "name": "to",
          "type": "address"
        }
      ],
      "name": "NewPendingOwnership",
      "type": "event"
    },
    {
      "inputs": [],
      "name": "acceptOwnership",
      "outputs": [],
      "stateMutability": "nonpayable",
      "type": "function"
    },
    {
      "inputs": [],
      "name": "governor",
      "outputs": [
        {
          "internalType": "address",
          "name": "",
          "type": "address"
        }
      ],
      "stateMutability": "view",
      "type": "function"
    },
    {
      "inputs": [],
      "name": "pendingGovernor",
      "outputs": [
        {
          "internalType": "address",
          "name": "",
          "type": "address"
        }
      ],
      "stateMutability": "view",
      "type": "function"
    },
    {
      "inputs": [
        {
          "internalType": "address",
          "name": "_newGovernor",
          "type": "address"
        }
      ],
      "name": "transferOwnership",
      "outputs": [],
      "stateMutability": "nonpayable",
      "type": "function"
    },
    {
      "inputs": [
        {
          "internalType": "address",
          "name": "_account",
          "type": "address"
        }
      ],
      "name": "addAuctioneer",
      "outputs": [],
      "stateMutability": "nonpayable",
      "type": "function"
    },
    {
      "inputs": [
        {
          "internalType": "address",
          "name": "_account",
          "type": "address"
        }
      ],
      "name": "removeAuctioneer",
      "outputs": [],
      "stateMutability": "nonpayable",
      "type": "function"
    },
    {
      "inputs": [],
      "name": "renounceAuctioneer",
      "outputs": [],
      "stateMutability": "nonpayable",
      "type": "function"
    },
    {
      "inputs": [
        {
          "internalType": "address",
          "name": "_account",
          "type": "address"
        }
      ],
      "name": "isAuctioneer",
      "outputs": [
        {
          "internalType": "bool",
          "name": "",
          "type": "bool"
        }
      ],
      "stateMutability": "view",
      "type": "function"
    }
  ],
  "bytecode": "0x608060405234801561001057600080fd5b5061003161002261005260201b60201c565b61005a60201b6108031760201c565b61004d61004261005260201b60201c565b61009d60201b60201c565b61013b565b600033905090565b806000806101000a81548173ffffffffffffffffffffffffffffffffffffffff021916908373ffffffffffffffffffffffffffffffffffffffff16021790555050565b6001600260008373ffffffffffffffffffffffffffffffffffffffff1673ffffffffffffffffffffffffffffffffffffffff16815260200190815260200160002060006101000a81548160ff0219169083151502179055508073ffffffffffffffffffffffffffffffffffffffff167fc4ad4859ea9478e209be13e057e75daa2aa8416900af4f37a41dc66ad49db56960405160405180910390a250565b610c058061014a6000396000f3fe608060405234801561001057600080fd5b50600436106100885760003560e01c8063cbe01bc81161005b578063cbe01bc814610101578063decb7a951461011d578063e3056a3414610127578063f2fde38b1461014557610088565b80630c340a241461008d57806379ba5097146100ab5780639cd85b5b146100b5578063bed2b6ac146100e5575b600080fd5b610095610161565b6040516100a291906109cb565b60405180910390f35b6100b3610185565b005b6100cf60048036038101906100ca9190610a17565b61045b565b6040516100dc9190610a5f565b60405180910390f35b6100ff60048036038101906100fa9190610a17565b6104b1565b005b61011b60048036038101906101169190610a17565b61054b565b005b6101256105e5565b005b61012f6105f7565b60405161013c91906109cb565b60405180910390f35b61015f600480360381019061015a9190610a17565b61061d565b005b60008054906101000a900473ffffffffffffffffffffffffffffffffffffffff1681565b600073ffffffffffffffffffffffffffffffffffffffff16600160009054906101000a900473ffffffffffffffffffffffffffffffffffffffff1673ffffffffffffffffffffffffffffffffffffffff16141580156102315750600160009054906101000a900473ffffffffffffffffffffffffffffffffffffffff1673ffffffffffffffffffffffffffffffffffffffff163373ffffffffffffffffffffffffffffffffffffffff16145b610270576040517f08c379a000000000000000000000000000000000000000000000000000000000815260040161026790610ad7565b60405180910390fd5b60008060009054906101000a900473ffffffffffffffffffffffffffffffffffffffff1690506000600160009054906101000a900473ffffffffffffffffffffffffffffffffffffffff169050600160009054906101000a900473ffffffffffffffffffffffffffffffffffffffff166000806101000a81548173ffffffffffffffffffffffffffffffffffffffff021916908373ffffffffffffffffffffffffffffffffffffffff1602179055506000600160006101000a81548173ffffffffffffffffffffffffffffffffffffffff021916908373ffffffffffffffffffffffffffffffffffffffff16021790555060008054906101000a900473ffffffffffffffffffffffffffffffffffffffff1673ffffffffffffffffffffffffffffffffffffffff168273ffffffffffffffffffffffffffffffffffffffff167f0ac6deed30eef60090c749850e10f2fa469e3e25fec1d1bef2853003f6e6f18f60405160405180910390a3600160009054906101000a900473ffffffffffffffffffffffffffffffffffffffff1673ffffffffffffffffffffffffffffffffffffffff168173ffffffffffffffffffffffffffffffffffffffff167f76563ad561b7036ae716b9b25cb521b21463240f104c97e12f25877f2235f33d60405160405180910390a35050565b6000600260008373ffffffffffffffffffffffffffffffffffffffff1673ffffffffffffffffffffffffffffffffffffffff16815260200190815260200160002060009054906101000a900460ff169050919050565b60008054906101000a900473ffffffffffffffffffffffffffffffffffffffff1673ffffffffffffffffffffffffffffffffffffffff163373ffffffffffffffffffffffffffffffffffffffff161461053f576040517f08c379a000000000000000000000000000000000000000000000000000000000815260040161053690610b43565b60405180910390fd5b61054881610846565b50565b60008054906101000a900473ffffffffffffffffffffffffffffffffffffffff1673ffffffffffffffffffffffffffffffffffffffff163373ffffffffffffffffffffffffffffffffffffffff16146105d9576040517f08c379a00000000000000000000000000000000000000000000000000000000081526004016105d090610b43565b60405180910390fd5b6105e2816108e4565b50565b6105f56105f0610982565b610846565b565b600160009054906101000a900473ffffffffffffffffffffffffffffffffffffffff1681565b60008054906101000a900473ffffffffffffffffffffffffffffffffffffffff1673ffffffffffffffffffffffffffffffffffffffff163373ffffffffffffffffffffffffffffffffffffffff16146106ab576040517f08c379a00000000000000000000000000000000000000000000000000000000081526004016106a290610b43565b60405180910390fd5b600073ffffffffffffffffffffffffffffffffffffffff168173ffffffffffffffffffffffffffffffffffffffff16141561071b576040517f08c379a000000000000000000000000000000000000000000000000000000000815260040161071290610baf565b60405180910390fd5b6000600160009054906101000a900473ffffffffffffffffffffffffffffffffffffffff16905081600160006101000a81548173ffffffffffffffffffffffffffffffffffffffff021916908373ffffffffffffffffffffffffffffffffffffffff160217905550600160009054906101000a900473ffffffffffffffffffffffffffffffffffffffff1673ffffffffffffffffffffffffffffffffffffffff168173ffffffffffffffffffffffffffffffffffffffff167f76563ad561b7036ae716b9b25cb521b21463240f104c97e12f25877f2235f33d60405160405180910390a35050565b806000806101000a81548173ffffffffffffffffffffffffffffffffffffffff021916908373ffffffffffffffffffffffffffffffffffffffff16021790555050565b6000600260008373ffffffffffffffffffffffffffffffffffffffff1673ffffffffffffffffffffffffffffffffffffffff16815260200190815260200160002060006101000a81548160ff0219169083151502179055508073ffffffffffffffffffffffffffffffffffffffff167fc12aae0314d0af3ff684b2bb940a24c3a3bb6e0a05bc40096a05caed0c1a0d1b60405160405180910390a250565b6001600260008373ffffffffffffffffffffffffffffffffffffffff1673ffffffffffffffffffffffffffffffffffffffff16815260200190815260200160002060006101000a81548160ff0219169083151502179055508073ffffffffffffffffffffffffffffffffffffffff167fc4ad4859ea9478e209be13e057e75daa2aa8416900af4f37a41dc66ad49db56960405160405180910390a250565b600033905090565b600073ffffffffffffffffffffffffffffffffffffffff82169050919050565b60006109b58261098a565b9050919050565b6109c5816109aa565b82525050565b60006020820190506109e060008301846109bc565b92915050565b600080fd5b6109f4816109aa565b81146109ff57600080fd5b50565b600081359050610a11816109eb565b92915050565b600060208284031215610a2d57610a2c6109e6565b5b6000610a3b84828501610a02565b91505092915050565b60008115159050919050565b610a5981610a44565b82525050565b6000602082019050610a746000830184610a50565b92915050565b600082825260208201905092915050565b7f43616c6c6572206d7573742062652070656e64696e6720676f7665726e6f7200600082015250565b6000610ac1601f83610a7a565b9150610acc82610a8b565b602082019050919050565b60006020820190508181036000830152610af081610ab4565b9050919050565b7f4f6e6c7920476f7665726e6f722063616e2063616c6c00000000000000000000600082015250565b6000610b2d601683610a7a565b9150610b3882610af7565b602082019050919050565b60006020820190508181036000830152610b5c81610b20565b9050919050565b7f476f7665726e6f72206d75737420626520736574000000000000000000000000600082015250565b6000610b99601483610a7a565b9150610ba482610b63565b602082019050919050565b60006020820190508181036000830152610bc881610b8c565b905091905056fea2646970667358221220c499f9c137216a1257fe8fe0d0ca4ce89de8772f60b44e9c93ed7051b4b8cf4064736f6c634300080b0033",
  "immutableReferences": {},
  "source": "//SPDX-License-Identifier: UNLICENSED\r\n\r\npragma solidity ^0.8.0;\r\n\r\n/// @title Auctions service\r\n/// @author Riccardo Magni\r\n/// @notice This contract was created for educational purpose, its reliability is not guaranteed\r\n/// @dev All functions calls are currently implemented without side effects\r\n\r\nimport \"./SafeMath.sol\";\r\nimport \"./Governed.sol\";\r\nimport \"./Context.sol\";\r\n\r\n/**\r\n* @title Auctioneer contract\r\n* @dev This is the implementation of the the auctioneers.\r\n*/\r\n\r\ncontract Auctioneer is Governed, Context {\r\n\r\n    /// @dev Wrappers over Solidity's arithmetic operations with added overflow checks\r\n    using SafeMath for uint;\r\n\r\n    // -- State --\r\n    mapping(address => bool) private _auctioneers;\r\n\r\n    // -- Events --\r\n    event AuctioneerAdded(address indexed account);\r\n    event AuctioneerRemoved(address indexed account);\r\n\r\n    // -- Modifier --\r\n    modifier onlyAuctioneer() {\r\n        require(isAuctioneer(_msgSender()), \"Only auctioneer can call\");\r\n        _;\r\n    }\r\n\r\n    /**\r\n     * @dev Auction Constructor.\r\n     */\r\n    constructor () {\r\n\r\n        /// @dev Set the owner of the contract\r\n        Governed._initialize(_msgSender());\r\n\r\n        /// @dev The governor is the default auctioneer\r\n        _addAuctioneer(_msgSender());\r\n    }\r\n\r\n    /**\r\n     * @dev Add a new auctioneer.\r\n     * @param _account Address of the auctioneer\r\n     */\r\n    function addAuctioneer(address _account) external onlyGovernor {\r\n        _addAuctioneer(_account);\r\n    }\r\n\r\n    /**\r\n     * @dev Remove a auctioneer.\r\n     * @param _account Address of the auctioneer\r\n     */\r\n    function removeAuctioneer(address _account) external onlyGovernor {\r\n        _removeAuctioneer(_account);\r\n    }\r\n\r\n    /**\r\n     * @dev Renounce to be a auctioneer.\r\n     */\r\n    function renounceAuctioneer() external {\r\n        _removeAuctioneer(_msgSender());\r\n    }\r\n\r\n    /**\r\n     * @dev Return if the `_account` is a auctioneer or not.\r\n     * @param _account Address to check\r\n     * @return True if the `_account` is auctioneer\r\n     */\r\n    function isAuctioneer(address _account) public view returns (bool) {\r\n        return _auctioneers[_account];\r\n    }\r\n\r\n    /**\r\n     * @dev Add a new auctioneer.\r\n     * @param _account Address of the auctioneer\r\n     */\r\n    function _addAuctioneer(address _account) private {\r\n        _auctioneers[_account] = true;\r\n        emit AuctioneerAdded(_account);\r\n    }\r\n\r\n    /**\r\n     * @dev Remove a auctioneer.\r\n     * @param _account Address of the auctioneer\r\n     */\r\n    function _removeAuctioneer(address _account) private {\r\n        _auctioneers[_account] = false;\r\n        emit AuctioneerRemoved(_account);\r\n    }\r\n}\r\n\r\n/**\r\n* @title Auctions contract\r\n* @dev This is the implementation of the the auctions service.\r\n*/\r\n\r\ncontract Auctions is Auctioneer {\r\n\r\n    /// @dev Wrappers over Solidity's arithmetic operations with added overflow checks\r\n    using SafeMath for uint;\r\n\r\n    // -- State --\r\n    struct Auction {\r\n        address payable beneficiary;\r\n        string description;\r\n        uint auctionEndTime; \r\n        mapping( address => uint ) pendingReturns;\r\n        uint numBids;\r\n        uint highestBid;\r\n        address highestBidder;\r\n        bool completed;\r\n    }\r\n\r\n    uint public numAuctions;\r\n    mapping( uint => Auction ) public auctions;\r\n    string companyName;\r\n\r\n    bytes[] public receipts;\r\n    uint public numReceipts;\r\n\r\n    // -- Events --\r\n    event NewAuctionCreated(uint indexed auctionID, address beneficiary, uint indexed auctionEndTime, uint indexed startingPrice);\r\n    event HighestBidIncreased(uint indexed auctionID, address indexed bidder, uint indexed amount);\r\n    event AuctionEnded(uint indexed auctionID, address indexed winner, uint indexed amount, address beneficiary);\r\n\r\n    // Initialize variables\r\n    constructor(string memory _companyName) {\r\n\r\n        companyName = _companyName;\r\n    }\r\n\r\n    /**\r\n     * @dev Create an auction\r\n     * @param _beneficiary Beneficiary of the auction\r\n     * @param _description Description of the auction\r\n     * @param _startingPrice Starting price of the auction\r\n     * @param _biddingTime Available time to bid\r\n     * @return The uint of the auction ID associated with the auction just created\r\n     */\r\n    function newAuction( address payable _beneficiary, string memory _description, uint _startingPrice, uint _biddingTime ) external onlyAuctioneer returns (uint) {\r\n        require(_beneficiary != address(0), \"Zero address entered\");\r\n        require(_startingPrice >= 0, \"Starting price has to be positive or null\");\r\n        require(_biddingTime > 0, \"Available time to bid has to be greather than zero\");\r\n\r\n        uint auctionID = numAuctions++;\r\n        Auction storage a = auctions[auctionID];\r\n        a.beneficiary = _beneficiary;\r\n        a.description = _description;\r\n        a.highestBid = _startingPrice;\r\n        a.auctionEndTime = block.timestamp.add(_biddingTime);\r\n\r\n        emit NewAuctionCreated(auctionID, a.beneficiary, a.auctionEndTime, a.highestBid);\r\n\r\n        return auctionID;\r\n    }\r\n\r\n    /**\r\n     * @dev Bid\r\n     * @param auctionID ID associated with the auction\r\n     */\r\n\r\n    function bid(uint auctionID) external payable {\r\n\r\n        Auction storage a = auctions[auctionID];\r\n        require(a.completed == false, \"Auction has already ended!\");\r\n        require(a.auctionEndTime > 0, \"AuctionID is not correct!\");\r\n        require(block.timestamp < a.auctionEndTime, \"Deadline has been reached!\");\r\n        require(msg.value > a.highestBid, \"Your bid value is lower than the highest bid\");\r\n\r\n        // Handle in case of starting price was set by auctioneer\r\n        if (a.numBids != 0) { \r\n\r\n            a.pendingReturns[a.highestBidder] = a.pendingReturns[a.highestBidder].add(a.highestBid);\r\n        }\r\n        a.highestBidder = _msgSender();   \r\n        a.highestBid = msg.value;\r\n        a.numBids++;\r\n\r\n        emit HighestBidIncreased(auctionID, _msgSender(), msg.value);\r\n    }\r\n\r\n    /**\r\n     * @dev Withdraw a bid that was overbid\r\n     * @param auctionID ID associated with the auction\r\n     * @return True if action was successfully executed, otherwise false\r\n     */\r\n    function withdraw(uint auctionID) external returns (bool) {\r\n\r\n        Auction storage a = auctions[auctionID];\r\n        require(a.auctionEndTime > 0, \"AuctionID is not correct!\");\r\n        require(a.pendingReturns[_msgSender()] > 0, \"You have been already refunded or you are not a bidder of this auction or you are the current highest bidder\");\r\n\r\n         \r\n        uint amount = a.pendingReturns[_msgSender()];\r\n        if (amount > 0) {\r\n            \r\n            a.pendingReturns[_msgSender()] = 0;\r\n          \r\n            if (!payable(_msgSender()).send(amount)) {\r\n                // No need to call throw here, just reset the amount owing\r\n                a.pendingReturns[_msgSender()] = amount;\r\n                return false;\r\n            }\r\n        }\r\n        return true;\r\n    }\r\n\r\n    /**\r\n     * @dev End an auction, transfer the highest bid to beneficiary\r\n     * @param auctionID ID associated with the auction\r\n     */\r\n    function auctionEnd(uint auctionID) external {\r\n\r\n        // Checks\r\n        Auction storage a = auctions[auctionID];\r\n        require(a.auctionEndTime > 0, \"AuctionID is not correct!\");\r\n        require(block.timestamp > a.auctionEndTime, \"Auction has not reached its deadline yet\");\r\n        require(a.completed == false, \"Auction has been already completed\");\r\n        \r\n\r\n        // Effects\r\n        a.completed = true;\r\n        uint amount = a.highestBid;\r\n        a.highestBid = 0;\r\n\r\n        // Interaction\r\n        a.beneficiary.transfer(amount);\r\n\r\n        emit AuctionEnded(auctionID, a.highestBidder, amount, a.beneficiary);\r\n    }\r\n\r\n    /**\r\n     * @dev Store hashes of JSON file receipts, only auctioneers\r\n     */\r\n    function storeReceipt() external onlyAuctioneer {\r\n        receipts.push(_msgData());\r\n        numReceipts++;\r\n    }\r\n\r\n}\r\n\r\n",
  "sourcePath": "C:\\Users\\Utente\\Desktop\\progetto finale\\truffle\\contracts\\Auctions.sol",
  "compiler": {
    "name": "solc",
    "version": "0.8.11+commit.d7f03943.Emscripten.clang"
  },
  "schemaVersion": "3.4.4",
  "updatedAt": "2022-02-22T20:44:18.724Z",
  "devdoc": {
    "details": "This is the implementation of the the auctioneers.",
    "kind": "dev",
    "methods": {
      "acceptOwnership()": {
        "details": "Admin function for pending governor to accept role and update governor. This function must called by the pending governor."
      },
      "addAuctioneer(address)": {
        "details": "Add a new auctioneer.",
        "params": {
          "_account": "Address of the auctioneer"
        }
      },
      "constructor": {
        "details": "Auction Constructor."
      },
      "isAuctioneer(address)": {
        "details": "Return if the `_account` is a auctioneer or not.",
        "params": {
          "_account": "Address to check"
        },
        "returns": {
          "_0": "True if the `_account` is auctioneer"
        }
      },
      "removeAuctioneer(address)": {
        "details": "Remove a auctioneer.",
        "params": {
          "_account": "Address of the auctioneer"
        }
      },
      "renounceAuctioneer()": {
        "details": "Renounce to be a auctioneer."
      },
      "transferOwnership(address)": {
        "details": "Admin function to begin change of governor. The `_newGovernor` must call `acceptOwnership` to finalize the transfer.",
        "params": {
          "_newGovernor": "Address of new `governor`"
        }
      }
    },
    "title": "Auctioneer contract",
    "version": 1
  },
  "userdoc": {
    "kind": "user",
    "methods": {},
    "version": 1
  }
}