{
  "contractName": "Governed",
  "abi": [
    {
      "anonymous": false,
      "inputs": [
        {
          "indexed": true,
          "internalType": "address",
          "name": "from",
          "type": "address"
        },
        {
          "indexed": true,
          "internalType": "address",
          "name": "to",
          "type": "address"
        }
      ],
      "name": "NewOwnership",
      "type": "event"
    },
    {
      "anonymous": false,
      "inputs": [
        {
          "indexed": true,
          "internalType": "address",
          "name": "from",
          "type": "address"
        },
        {
          "indexed": true,
          "internalType": "address",
          "name": "to",
          "type": "address"
        }
      ],
      "name": "NewPendingOwnership",
      "type": "event"
    },
    {
      "inputs": [],
      "name": "governor",
      "outputs": [
        {
          "internalType": "address",
          "name": "",
          "type": "address"
        }
      ],
      "stateMutability": "view",
      "type": "function"
    },
    {
      "inputs": [],
      "name": "pendingGovernor",
      "outputs": [
        {
          "internalType": "address",
          "name": "",
          "type": "address"
        }
      ],
      "stateMutability": "view",
      "type": "function"
    },
    {
      "inputs": [
        {
          "internalType": "address",
          "name": "_newGovernor",
          "type": "address"
        }
      ],
      "name": "transferOwnership",
      "outputs": [],
      "stateMutability": "nonpayable",
      "type": "function"
    },
    {
      "inputs": [],
      "name": "acceptOwnership",
      "outputs": [],
      "stateMutability": "nonpayable",
      "type": "function"
    }
  ],
  "bytecode": "0x608060405234801561001057600080fd5b506107fe806100206000396000f3fe608060405234801561001057600080fd5b506004361061004c5760003560e01c80630c340a241461005157806379ba50971461006f578063e3056a3414610079578063f2fde38b14610097575b600080fd5b6100596100b3565b60405161006691906105fa565b60405180910390f35b6100776100d7565b005b6100816103ad565b60405161008e91906105fa565b60405180910390f35b6100b160048036038101906100ac9190610646565b6103d3565b005b60008054906101000a900473ffffffffffffffffffffffffffffffffffffffff1681565b600073ffffffffffffffffffffffffffffffffffffffff16600160009054906101000a900473ffffffffffffffffffffffffffffffffffffffff1673ffffffffffffffffffffffffffffffffffffffff16141580156101835750600160009054906101000a900473ffffffffffffffffffffffffffffffffffffffff1673ffffffffffffffffffffffffffffffffffffffff163373ffffffffffffffffffffffffffffffffffffffff16145b6101c2576040517f08c379a00000000000000000000000000000000000000000000000000000000081526004016101b9906106d0565b60405180910390fd5b60008060009054906101000a900473ffffffffffffffffffffffffffffffffffffffff1690506000600160009054906101000a900473ffffffffffffffffffffffffffffffffffffffff169050600160009054906101000a900473ffffffffffffffffffffffffffffffffffffffff166000806101000a81548173ffffffffffffffffffffffffffffffffffffffff021916908373ffffffffffffffffffffffffffffffffffffffff1602179055506000600160006101000a81548173ffffffffffffffffffffffffffffffffffffffff021916908373ffffffffffffffffffffffffffffffffffffffff16021790555060008054906101000a900473ffffffffffffffffffffffffffffffffffffffff1673ffffffffffffffffffffffffffffffffffffffff168273ffffffffffffffffffffffffffffffffffffffff167f0ac6deed30eef60090c749850e10f2fa469e3e25fec1d1bef2853003f6e6f18f60405160405180910390a3600160009054906101000a900473ffffffffffffffffffffffffffffffffffffffff1673ffffffffffffffffffffffffffffffffffffffff168173ffffffffffffffffffffffffffffffffffffffff167f76563ad561b7036ae716b9b25cb521b21463240f104c97e12f25877f2235f33d60405160405180910390a35050565b600160009054906101000a900473ffffffffffffffffffffffffffffffffffffffff1681565b60008054906101000a900473ffffffffffffffffffffffffffffffffffffffff1673ffffffffffffffffffffffffffffffffffffffff163373ffffffffffffffffffffffffffffffffffffffff1614610461576040517f08c379a00000000000000000000000000000000000000000000000000000000081526004016104589061073c565b60405180910390fd5b600073ffffffffffffffffffffffffffffffffffffffff168173ffffffffffffffffffffffffffffffffffffffff1614156104d1576040517f08c379a00000000000000000000000000000000000000000000000000000000081526004016104c8906107a8565b60405180910390fd5b6000600160009054906101000a900473ffffffffffffffffffffffffffffffffffffffff16905081600160006101000a81548173ffffffffffffffffffffffffffffffffffffffff021916908373ffffffffffffffffffffffffffffffffffffffff160217905550600160009054906101000a900473ffffffffffffffffffffffffffffffffffffffff1673ffffffffffffffffffffffffffffffffffffffff168173ffffffffffffffffffffffffffffffffffffffff167f76563ad561b7036ae716b9b25cb521b21463240f104c97e12f25877f2235f33d60405160405180910390a35050565b600073ffffffffffffffffffffffffffffffffffffffff82169050919050565b60006105e4826105b9565b9050919050565b6105f4816105d9565b82525050565b600060208201905061060f60008301846105eb565b92915050565b600080fd5b610623816105d9565b811461062e57600080fd5b50565b6000813590506106408161061a565b92915050565b60006020828403121561065c5761065b610615565b5b600061066a84828501610631565b91505092915050565b600082825260208201905092915050565b7f43616c6c6572206d7573742062652070656e64696e6720676f7665726e6f7200600082015250565b60006106ba601f83610673565b91506106c582610684565b602082019050919050565b600060208201905081810360008301526106e9816106ad565b9050919050565b7f4f6e6c7920476f7665726e6f722063616e2063616c6c00000000000000000000600082015250565b6000610726601683610673565b9150610731826106f0565b602082019050919050565b6000602082019050818103600083015261075581610719565b9050919050565b7f476f7665726e6f72206d75737420626520736574000000000000000000000000600082015250565b6000610792601483610673565b915061079d8261075c565b602082019050919050565b600060208201905081810360008301526107c181610785565b905091905056fea2646970667358221220ad2db543aaa1141f4aae1992cc3e905cb0c32b00f27e3bc24cb910e60b008df864736f6c634300080b0033",
  "immutableReferences": {},
  "source": "//SPDX-License-Identifier: UNLICENSED\r\n\r\npragma solidity >=0.5.0 <0.9.0;\r\n\r\n/**\r\n * @title Governance contract\r\n * @dev All contracts that will be owned by a Governor entity should extend this contract.\r\n */\r\n\r\ncontract Governed {\r\n    // -- State --\r\n\r\n    address public governor;\r\n    address public pendingGovernor;\r\n\r\n    // -- Events --\r\n\r\n    event NewPendingOwnership(address indexed from, address indexed to);\r\n    event NewOwnership(address indexed from, address indexed to);\r\n\r\n    /**\r\n     * @dev Check if the caller is the governor.\r\n     */\r\n    modifier onlyGovernor {\r\n        require(msg.sender == governor, \"Only Governor can call\");\r\n        _;\r\n    }\r\n\r\n    /**\r\n     * @dev Initialize the governor to the contract caller.\r\n     */\r\n    function _initialize(address _initGovernor) internal {\r\n        governor = _initGovernor;\r\n    }\r\n\r\n    /**\r\n     * @dev Admin function to begin change of governor. The `_newGovernor` must call\r\n     * `acceptOwnership` to finalize the transfer.\r\n     * @param _newGovernor Address of new `governor`\r\n     */\r\n    function transferOwnership(address _newGovernor) external onlyGovernor {\r\n        require(_newGovernor != address(0), \"Governor must be set\");\r\n\r\n        address oldPendingGovernor = pendingGovernor;\r\n        pendingGovernor = _newGovernor;\r\n\r\n        emit NewPendingOwnership(oldPendingGovernor, pendingGovernor);\r\n    }\r\n\r\n    /**\r\n     * @dev Admin function for pending governor to accept role and update governor.\r\n     * This function must called by the pending governor.\r\n     */\r\n    function acceptOwnership() external {\r\n        require(\r\n            pendingGovernor != address(0) && msg.sender == pendingGovernor,\r\n            \"Caller must be pending governor\"\r\n        );\r\n\r\n        address oldGovernor = governor;\r\n        address oldPendingGovernor = pendingGovernor;\r\n\r\n        governor = pendingGovernor;\r\n        pendingGovernor = address(0);\r\n\r\n        emit NewOwnership(oldGovernor, governor);\r\n        emit NewPendingOwnership(oldPendingGovernor, pendingGovernor);\r\n    }\r\n}\r\n",
  "sourcePath": "C:\\Users\\Utente\\Desktop\\progetto finale\\truffle\\contracts\\Governed.sol",
  "compiler": {
    "name": "solc",
    "version": "0.8.11+commit.d7f03943.Emscripten.clang"
  },
  "schemaVersion": "3.4.4",
  "updatedAt": "2022-02-22T20:44:18.755Z",
  "devdoc": {
    "details": "All contracts that will be owned by a Governor entity should extend this contract.",
    "kind": "dev",
    "methods": {
      "acceptOwnership()": {
        "details": "Admin function for pending governor to accept role and update governor. This function must called by the pending governor."
      },
      "transferOwnership(address)": {
        "details": "Admin function to begin change of governor. The `_newGovernor` must call `acceptOwnership` to finalize the transfer.",
        "params": {
          "_newGovernor": "Address of new `governor`"
        }
      }
    },
    "title": "Governance contract",
    "version": 1
  },
  "userdoc": {
    "kind": "user",
    "methods": {},
    "version": 1
  }
}